{
  "_format": "hh-sol-artifact-1",
  "contractName": "ERC20Receiver",
  "sourceName": "contracts/ERC20Receiver.sol",
  "abi": [
    {
      "inputs": [],
      "stateMutability": "nonpayable",
      "type": "constructor"
    },
    {
      "anonymous": false,
      "inputs": [
        {
          "indexed": false,
          "internalType": "address",
          "name": "sender",
          "type": "address"
        },
        {
          "indexed": false,
          "internalType": "address",
          "name": "token",
          "type": "address"
        },
        {
          "indexed": false,
          "internalType": "uint256",
          "name": "tokenAmount",
          "type": "uint256"
        }
      ],
      "name": "ERC20Deposit",
      "type": "event"
    },
    {
      "anonymous": false,
      "inputs": [
        {
          "indexed": true,
          "internalType": "contract IERC20",
          "name": "token",
          "type": "address"
        },
        {
          "indexed": false,
          "internalType": "address",
          "name": "receiverAddress",
          "type": "address"
        },
        {
          "indexed": false,
          "internalType": "uint256",
          "name": "amount",
          "type": "uint256"
        }
      ],
      "name": "ERC20PaymentReleased",
      "type": "event"
    },
    {
      "anonymous": false,
      "inputs": [
        {
          "indexed": true,
          "internalType": "address",
          "name": "previousOwner",
          "type": "address"
        },
        {
          "indexed": true,
          "internalType": "address",
          "name": "newOwner",
          "type": "address"
        }
      ],
      "name": "OwnershipTransferred",
      "type": "event"
    },
    {
      "inputs": [
        {
          "internalType": "address",
          "name": "token",
          "type": "address"
        },
        {
          "internalType": "uint256",
          "name": "tokenAmount",
          "type": "uint256"
        }
      ],
      "name": "deposit",
      "outputs": [],
      "stateMutability": "nonpayable",
      "type": "function"
    },
    {
      "inputs": [
        {
          "internalType": "contract IERC20",
          "name": "",
          "type": "address"
        },
        {
          "internalType": "address",
          "name": "",
          "type": "address"
        }
      ],
      "name": "erc20Released",
      "outputs": [
        {
          "internalType": "uint256",
          "name": "",
          "type": "uint256"
        }
      ],
      "stateMutability": "view",
      "type": "function"
    },
    {
      "inputs": [
        {
          "internalType": "contract IERC20",
          "name": "",
          "type": "address"
        }
      ],
      "name": "erc20TotalReleased",
      "outputs": [
        {
          "internalType": "uint256",
          "name": "",
          "type": "uint256"
        }
      ],
      "stateMutability": "view",
      "type": "function"
    },
    {
      "inputs": [
        {
          "internalType": "contract IERC20",
          "name": "token",
          "type": "address"
        }
      ],
      "name": "getBalance",
      "outputs": [
        {
          "internalType": "uint256",
          "name": "",
          "type": "uint256"
        }
      ],
      "stateMutability": "view",
      "type": "function"
    },
    {
      "inputs": [],
      "name": "owner",
      "outputs": [
        {
          "internalType": "address",
          "name": "",
          "type": "address"
        }
      ],
      "stateMutability": "view",
      "type": "function"
    },
    {
      "inputs": [
        {
          "internalType": "contract IERC20",
          "name": "token",
          "type": "address"
        },
        {
          "internalType": "address",
          "name": "receiverAddress",
          "type": "address"
        },
        {
          "internalType": "uint256",
          "name": "amount",
          "type": "uint256"
        }
      ],
      "name": "release",
      "outputs": [],
      "stateMutability": "nonpayable",
      "type": "function"
    },
    {
      "inputs": [],
      "name": "renounceOwnership",
      "outputs": [],
      "stateMutability": "nonpayable",
      "type": "function"
    },
    {
      "inputs": [
        {
          "internalType": "address",
          "name": "newOwner",
          "type": "address"
        }
      ],
      "name": "transferOwnership",
      "outputs": [],
      "stateMutability": "nonpayable",
      "type": "function"
    }
  ],
  "bytecode": "0x608060405234801561001057600080fd5b5061001a3361001f565b61006f565b600080546001600160a01b038381166001600160a01b0319831681178455604051919092169283917f8be0079c531659141344cd1fd0a4f28419497f9722a3daafe3b4186f6b6457e09190a35050565b610b3d8061007e6000396000f3fe608060405234801561001057600080fd5b50600436106100885760003560e01c80638bfb07c91161005b5780638bfb07c9146101085780638da5cb5b1461011b578063f2fde38b14610136578063f8b2cb4f1461014957600080fd5b80633375bbdc1461008d57806347e7ef24146100c05780635ca8bc82146100d5578063715018a614610100575b600080fd5b6100ad61009b366004610958565b60016020526000908152604090205481565b6040519081526020015b60405180910390f35b6100d36100ce366004610974565b61015c565b005b6100ad6100e33660046109bf565b600260209081526000928352604080842090915290825290205481565b6100d3610305565b6100d36101163660046109f7565b610319565b6000546040516001600160a01b0390911681526020016100b7565b6100d3610144366004610958565b610509565b6100ad610157366004610958565b610582565b816001600160a01b0381166101c75760405162461bcd60e51b815260206004820152602660248201527f455243323052656365697665723a2041646472657373206973207a65726f206160448201526564647265737360d01b60648201526084015b60405180910390fd5b600082116102305760405162461bcd60e51b815260206004820152603060248201527f455243323052656365697665723a20416d6f756e742073686f756c642062652060448201526f677261746572207468616e207a65726f60801b60648201526084016101be565b6040516323b872dd60e01b8152336004820152306024820152604481018390526001600160a01b038416906323b872dd90606401602060405180830381600087803b15801561027e57600080fd5b505af1158015610292573d6000803e3d6000fd5b505050506040513d601f19601f820116820180604052508101906102b6919061099f565b50604080513381526001600160a01b03851660208201529081018390527fc5a3eaef44f54039a9a9d23d5296c9de6bf83e1b6d4ebd109e85cbcf477737a69060600160405180910390a1505050565b61030d610602565b610317600061065c565b565b610321610602565b8061036e5760405162461bcd60e51b815260206004820152601a60248201527f455243323052656365697665723a205a65726f20616d6f756e7400000000000060448201526064016101be565b6040516370a0823160e01b815230600482015281906001600160a01b038516906370a082319060240160206040518083038186803b1580156103af57600080fd5b505afa1580156103c3573d6000803e3d6000fd5b505050506040513d601f19601f820116820180604052508101906103e79190610a37565b10156104495760405162461bcd60e51b815260206004820152602b60248201527f455243323052656365697665723a204e6f7420656e6f75676820616d6f756e7460448201526a20746f2072656c6561736560a81b60648201526084016101be565b6001600160a01b03808416600090815260026020908152604080832093861683529290529081208054839290610480908490610a9e565b90915550506001600160a01b038316600090815260016020526040812080548392906104ad908490610a9e565b909155506104be90508383836106ac565b604080516001600160a01b038481168252602082018490528516917f3be5b7a71e84ed12875d241991c70855ac5817d847039e17a9d895c1ceb0f18a910160405180910390a2505050565b610511610602565b6001600160a01b0381166105765760405162461bcd60e51b815260206004820152602660248201527f4f776e61626c653a206e6577206f776e657220697320746865207a65726f206160448201526564647265737360d01b60648201526084016101be565b61057f8161065c565b50565b6040516370a0823160e01b81523060048201526000906001600160a01b038316906370a082319060240160206040518083038186803b1580156105c457600080fd5b505afa1580156105d8573d6000803e3d6000fd5b505050506040513d601f19601f820116820180604052508101906105fc9190610a37565b92915050565b6000546001600160a01b031633146103175760405162461bcd60e51b815260206004820181905260248201527f4f776e61626c653a2063616c6c6572206973206e6f7420746865206f776e657260448201526064016101be565b600080546001600160a01b038381166001600160a01b0319831681178455604051919092169283917f8be0079c531659141344cd1fd0a4f28419497f9722a3daafe3b4186f6b6457e09190a35050565b604080516001600160a01b038416602482015260448082018490528251808303909101815260649091019091526020810180516001600160e01b031663a9059cbb60e01b1790526106fe908490610703565b505050565b6000610758826040518060400160405280602081526020017f5361666545524332303a206c6f772d6c6576656c2063616c6c206661696c6564815250856001600160a01b03166107d59092919063ffffffff16565b8051909150156106fe5780806020019051810190610776919061099f565b6106fe5760405162461bcd60e51b815260206004820152602a60248201527f5361666545524332303a204552433230206f7065726174696f6e20646964206e6044820152691bdd081cdd58d8d9595960b21b60648201526084016101be565b60606107e484846000856107ee565b90505b9392505050565b60608247101561084f5760405162461bcd60e51b815260206004820152602660248201527f416464726573733a20696e73756666696369656e742062616c616e636520666f6044820152651c8818d85b1b60d21b60648201526084016101be565b6001600160a01b0385163b6108a65760405162461bcd60e51b815260206004820152601d60248201527f416464726573733a2063616c6c20746f206e6f6e2d636f6e747261637400000060448201526064016101be565b600080866001600160a01b031685876040516108c29190610a4f565b60006040518083038185875af1925050503d80600081146108ff576040519150601f19603f3d011682016040523d82523d6000602084013e610904565b606091505b509150915061091482828661091f565b979650505050505050565b6060831561092e5750816107e7565b82511561093e5782518084602001fd5b8160405162461bcd60e51b81526004016101be9190610a6b565b600060208284031215610969578081fd5b81356107e781610af2565b60008060408385031215610986578081fd5b823561099181610af2565b946020939093013593505050565b6000602082840312156109b0578081fd5b815180151581146107e7578182fd5b600080604083850312156109d1578182fd5b82356109dc81610af2565b915060208301356109ec81610af2565b809150509250929050565b600080600060608486031215610a0b578081fd5b8335610a1681610af2565b92506020840135610a2681610af2565b929592945050506040919091013590565b600060208284031215610a48578081fd5b5051919050565b60008251610a61818460208701610ac2565b9190910192915050565b6020815260008251806020840152610a8a816040850160208701610ac2565b601f01601f19169190910160400192915050565b60008219821115610abd57634e487b7160e01b81526011600452602481fd5b500190565b60005b83811015610add578181015183820152602001610ac5565b83811115610aec576000848401525b50505050565b6001600160a01b038116811461057f57600080fdfea2646970667358221220002f4910d8b3b3ca807528fa9f5626a867b0b0fec7467b044fb73870bd8d915b64736f6c63430008040033",
  "linkReferences": {},
  "deployedLinkReferences": {}
}